{
  "contractName": "ImageFactory",
  "abi": [
    {
      "anonymous": false,
      "inputs": [
        {
          "indexed": false,
          "internalType": "uint256",
          "name": "imageID",
          "type": "uint256"
        },
        {
          "indexed": false,
          "internalType": "string",
          "name": "title",
          "type": "string"
        },
        {
          "indexed": false,
          "internalType": "string",
          "name": "description",
          "type": "string"
        },
        {
          "indexed": false,
          "internalType": "bytes32",
          "name": "hash",
          "type": "bytes32"
        },
        {
          "indexed": false,
          "internalType": "string",
          "name": "ipfs",
          "type": "string"
        },
        {
          "indexed": false,
          "internalType": "uint32",
          "name": "creationTime",
          "type": "uint32"
        }
      ],
      "name": "NewImage",
      "type": "event"
    },
    {
      "anonymous": false,
      "inputs": [
        {
          "indexed": true,
          "internalType": "address",
          "name": "previousOwner",
          "type": "address"
        },
        {
          "indexed": true,
          "internalType": "address",
          "name": "newOwner",
          "type": "address"
        }
      ],
      "name": "OwnershipTransferred",
      "type": "event"
    },
    {
      "inputs": [
        {
          "internalType": "bytes32",
          "name": "",
          "type": "bytes32"
        }
      ],
      "name": "imageHashToIndex",
      "outputs": [
        {
          "internalType": "uint256",
          "name": "arrayIndex",
          "type": "uint256"
        },
        {
          "internalType": "bool",
          "name": "exists",
          "type": "bool"
        }
      ],
      "stateMutability": "view",
      "type": "function"
    },
    {
      "inputs": [
        {
          "internalType": "uint256",
          "name": "",
          "type": "uint256"
        }
      ],
      "name": "imageToOwner",
      "outputs": [
        {
          "internalType": "address",
          "name": "",
          "type": "address"
        }
      ],
      "stateMutability": "view",
      "type": "function"
    },
    {
      "inputs": [
        {
          "internalType": "uint256",
          "name": "",
          "type": "uint256"
        }
      ],
      "name": "images",
      "outputs": [
        {
          "internalType": "string",
          "name": "title",
          "type": "string"
        },
        {
          "internalType": "string",
          "name": "description",
          "type": "string"
        },
        {
          "internalType": "bytes32",
          "name": "hash",
          "type": "bytes32"
        },
        {
          "internalType": "string",
          "name": "ipfs",
          "type": "string"
        },
        {
          "internalType": "uint32",
          "name": "creationTime",
          "type": "uint32"
        },
        {
          "internalType": "bool",
          "name": "forSale",
          "type": "bool"
        },
        {
          "internalType": "bool",
          "name": "forLicence",
          "type": "bool"
        },
        {
          "internalType": "enum ImageFactory.LicenceType",
          "name": "licenceType",
          "type": "uint8"
        },
        {
          "internalType": "uint256",
          "name": "price",
          "type": "uint256"
        },
        {
          "internalType": "uint256",
          "name": "priceLicence",
          "type": "uint256"
        },
        {
          "internalType": "uint256",
          "name": "numOfLicences",
          "type": "uint256"
        }
      ],
      "stateMutability": "view",
      "type": "function"
    },
    {
      "inputs": [],
      "name": "isOwner",
      "outputs": [
        {
          "internalType": "bool",
          "name": "",
          "type": "bool"
        }
      ],
      "stateMutability": "view",
      "type": "function"
    },
    {
      "inputs": [],
      "name": "owner",
      "outputs": [
        {
          "internalType": "address",
          "name": "",
          "type": "address"
        }
      ],
      "stateMutability": "view",
      "type": "function"
    },
    {
      "inputs": [],
      "name": "renounceOwnership",
      "outputs": [],
      "stateMutability": "nonpayable",
      "type": "function"
    },
    {
      "inputs": [
        {
          "internalType": "address",
          "name": "newOwner",
          "type": "address"
        }
      ],
      "name": "transferOwnership",
      "outputs": [],
      "stateMutability": "nonpayable",
      "type": "function"
    },
    {
      "inputs": [
        {
          "internalType": "string",
          "name": "_title",
          "type": "string"
        },
        {
          "internalType": "string",
          "name": "_description",
          "type": "string"
        },
        {
          "internalType": "string",
          "name": "_hash",
          "type": "string"
        },
        {
          "internalType": "string",
          "name": "_ipfs",
          "type": "string"
        }
      ],
      "name": "createNewImage",
      "outputs": [],
      "stateMutability": "nonpayable",
      "type": "function"
    },
    {
      "inputs": [],
      "name": "getNumImages",
      "outputs": [
        {
          "internalType": "uint256",
          "name": "",
          "type": "uint256"
        }
      ],
      "stateMutability": "view",
      "type": "function"
    }
  ],
  "bytecode": "0x608060405234801561001057600080fd5b50336000806101000a81548173ffffffffffffffffffffffffffffffffffffffff021916908373ffffffffffffffffffffffffffffffffffffffff16021790555060008054906101000a900473ffffffffffffffffffffffffffffffffffffffff1673ffffffffffffffffffffffffffffffffffffffff16600073ffffffffffffffffffffffffffffffffffffffff167f8be0079c531659141344cd1fd0a4f28419497f9722a3daafe3b4186f6b6457e060405160405180910390a361153f806100db6000396000f3fe608060405234801561001057600080fd5b50600436106100935760003560e01c80638da5cb5b116100665780638da5cb5b1461013d5780638f32d59b1461015b578063ca73f8ad14610179578063e4cf1b6714610197578063f2fde38b146101b357610093565b806334db2ef71461009857806342947657146100c9578063715018a6146100f95780638485648214610103575b600080fd5b6100b260048036038101906100ad9190610e17565b6101cf565b6040516100c0929190611178565b60405180910390f35b6100e360048036038101906100de9190610f03565b610200565b6040516100f09190611047565b60405180910390f35b610101610233565b005b61011d60048036038101906101189190610f03565b610302565b6040516101349b9a9998979695949392919061107d565b60405180910390f35b61014561053b565b6040516101529190611047565b60405180910390f35b610163610564565b6040516101709190611062565b60405180910390f35b6101816105bb565b60405161018e919061115d565b60405180910390f35b6101b160048036038101906101ac9190610e40565b6105c5565b005b6101cd60048036038101906101c89190610dee565b61066d565b005b60056020528060005260406000206000915090508060000154908060010160009054906101000a900460ff16905082565b60036020528060005260406000206000915054906101000a900473ffffffffffffffffffffffffffffffffffffffff1681565b61023b610564565b61024457600080fd5b600073ffffffffffffffffffffffffffffffffffffffff1660008054906101000a900473ffffffffffffffffffffffffffffffffffffffff1673ffffffffffffffffffffffffffffffffffffffff167f8be0079c531659141344cd1fd0a4f28419497f9722a3daafe3b4186f6b6457e060405160405180910390a360008060006101000a81548173ffffffffffffffffffffffffffffffffffffffff021916908373ffffffffffffffffffffffffffffffffffffffff160217905550565b6001818154811061031257600080fd5b90600052602060002090600a020160009150905080600001805461033590611368565b80601f016020809104026020016040519081016040528092919081815260200182805461036190611368565b80156103ae5780601f10610383576101008083540402835291602001916103ae565b820191906000526020600020905b81548152906001019060200180831161039157829003601f168201915b5050505050908060010180546103c390611368565b80601f01602080910402602001604051908101604052809291908181526020018280546103ef90611368565b801561043c5780601f106104115761010080835404028352916020019161043c565b820191906000526020600020905b81548152906001019060200180831161041f57829003601f168201915b50505050509080600201549080600301805461045790611368565b80601f016020809104026020016040519081016040528092919081815260200182805461048390611368565b80156104d05780601f106104a5576101008083540402835291602001916104d0565b820191906000526020600020905b8154815290600101906020018083116104b357829003601f168201915b5050505050908060040160009054906101000a900463ffffffff16908060040160049054906101000a900460ff16908060040160059054906101000a900460ff16908060040160069054906101000a900460ff1690806005015490806006015490806007015490508b565b60008060009054906101000a900473ffffffffffffffffffffffffffffffffffffffff16905090565b60008060009054906101000a900473ffffffffffffffffffffffffffffffffffffffff1673ffffffffffffffffffffffffffffffffffffffff163373ffffffffffffffffffffffffffffffffffffffff1614905090565b6000600254905090565b6000826040516020016105d89190611030565b604051602081830303815290604052805190602001209050600015156005600083815260200190815260200160002060010160009054906101000a900460ff1615151461065a576040517f08c379a00000000000000000000000000000000000000000000000000000000081526004016106519061113d565b60405180910390fd5b6106668585838561068a565b5050505050565b610675610564565b61067e57600080fd5b61068781610a47565b50565b60004290506060806000604051806101a001604052808981526020018881526020018781526020018681526020018563ffffffff16815260200160001515815260200160001515815260200160006002811115610710577f4e487b7100000000000000000000000000000000000000000000000000000000600052602160045260246000fd5b815260200160008152602001600081526020016000815260200184815260200183815250905060018190806001815401808255809150506001900390600052602060002090600a0201600090919091909150600082015181600001908051906020019061077e929190610b3e565b50602082015181600101908051906020019061079b929190610b3e565b506040820151816002015560608201518160030190805190602001906107c2929190610b3e565b5060808201518160040160006101000a81548163ffffffff021916908363ffffffff16021790555060a08201518160040160046101000a81548160ff02191690831515021790555060c08201518160040160056101000a81548160ff02191690831515021790555060e08201518160040160066101000a81548160ff0219169083600281111561087b577f4e487b7100000000000000000000000000000000000000000000000000000000600052602160045260246000fd5b02179055506101008201518160050155610120820151816006015561014082015181600701556101608201518160080190805190602001906108be929190610bc4565b506101808201518160090190805190602001906108dc929190610ca0565b5050507f91e7288b324b4a4719c3431b68d8a909cc64ecf139b0ce584015fae593b7f353600254898989898960405161091a969594939291906111a1565b60405180910390a16040518060400160405280600254815260200160011515815250600560008881526020019081526020016000206000820151816000015560208201518160010160006101000a81548160ff0219169083151502179055509050503360036000600254815260200190815260200160002060006101000a81548173ffffffffffffffffffffffffffffffffffffffff021916908373ffffffffffffffffffffffffffffffffffffffff160217905550600460003373ffffffffffffffffffffffffffffffffffffffff1673ffffffffffffffffffffffffffffffffffffffff1681526020019081526020016000206000815480929190610a209061139a565b919050555060026000815480929190610a389061139a565b91905055505050505050505050565b600073ffffffffffffffffffffffffffffffffffffffff168173ffffffffffffffffffffffffffffffffffffffff161415610a8157600080fd5b8073ffffffffffffffffffffffffffffffffffffffff1660008054906101000a900473ffffffffffffffffffffffffffffffffffffffff1673ffffffffffffffffffffffffffffffffffffffff167f8be0079c531659141344cd1fd0a4f28419497f9722a3daafe3b4186f6b6457e060405160405180910390a3806000806101000a81548173ffffffffffffffffffffffffffffffffffffffff021916908373ffffffffffffffffffffffffffffffffffffffff16021790555050565b828054610b4a90611368565b90600052602060002090601f016020900481019282610b6c5760008555610bb3565b82601f10610b8557805160ff1916838001178555610bb3565b82800160010185558215610bb3579182015b82811115610bb2578251825591602001919060010190610b97565b5b509050610bc09190610d2a565b5090565b82805482825590600052602060002090601f01602090048101928215610c8f5791602002820160005b83821115610c6057835183826101000a81548160ff02191690836002811115610c3f577f4e487b7100000000000000000000000000000000000000000000000000000000600052602160045260246000fd5b02179055509260200192600101602081600001049283019260010302610bed565b8015610c8d5782816101000a81549060ff0219169055600101602081600001049283019260010302610c60565b505b509050610c9c9190610d2a565b5090565b828054828255906000526020600020908101928215610d19579160200282015b82811115610d185782518260006101000a81548173ffffffffffffffffffffffffffffffffffffffff021916908373ffffffffffffffffffffffffffffffffffffffff16021790555091602001919060010190610cc0565b5b509050610d269190610d2a565b5090565b5b80821115610d43576000816000905550600101610d2b565b5090565b6000610d5a610d5584611248565b611217565b905082815260208101848484011115610d7257600080fd5b610d7d848285611326565b509392505050565b600081359050610d94816114c4565b92915050565b600081359050610da9816114db565b92915050565b600082601f830112610dc057600080fd5b8135610dd0848260208601610d47565b91505092915050565b600081359050610de8816114f2565b92915050565b600060208284031215610e0057600080fd5b6000610e0e84828501610d85565b91505092915050565b600060208284031215610e2957600080fd5b6000610e3784828501610d9a565b91505092915050565b60008060008060808587031215610e5657600080fd5b600085013567ffffffffffffffff811115610e7057600080fd5b610e7c87828801610daf565b945050602085013567ffffffffffffffff811115610e9957600080fd5b610ea587828801610daf565b935050604085013567ffffffffffffffff811115610ec257600080fd5b610ece87828801610daf565b925050606085013567ffffffffffffffff811115610eeb57600080fd5b610ef787828801610daf565b91505092959194509250565b600060208284031215610f1557600080fd5b6000610f2384828501610dd9565b91505092915050565b610f358161129f565b82525050565b610f44816112b1565b82525050565b610f53816112bd565b82525050565b610f6281611314565b82525050565b6000610f7382611278565b610f7d8185611283565b9350610f8d818560208601611335565b610f968161149f565b840191505092915050565b6000610fac82611278565b610fb68185611294565b9350610fc6818560208601611335565b80840191505092915050565b6000610fdf602083611283565b91507f496d61676520616c72656164792065786973747320696e20636f6e74726163746000830152602082019050919050565b61101b816112fa565b82525050565b61102a81611304565b82525050565b600061103c8284610fa1565b915081905092915050565b600060208201905061105c6000830184610f2c565b92915050565b60006020820190506110776000830184610f3b565b92915050565b6000610160820190508181036000830152611098818e610f68565b905081810360208301526110ac818d610f68565b90506110bb604083018c610f4a565b81810360608301526110cd818b610f68565b90506110dc608083018a611021565b6110e960a0830189610f3b565b6110f660c0830188610f3b565b61110360e0830187610f59565b611111610100830186611012565b61111f610120830185611012565b61112d610140830184611012565b9c9b505050505050505050505050565b6000602082019050818103600083015261115681610fd2565b9050919050565b60006020820190506111726000830184611012565b92915050565b600060408201905061118d6000830185611012565b61119a6020830184610f3b565b9392505050565b600060c0820190506111b66000830189611012565b81810360208301526111c88188610f68565b905081810360408301526111dc8187610f68565b90506111eb6060830186610f4a565b81810360808301526111fd8185610f68565b905061120c60a0830184611021565b979650505050505050565b6000604051905081810181811067ffffffffffffffff8211171561123e5761123d611470565b5b8060405250919050565b600067ffffffffffffffff82111561126357611262611470565b5b601f19601f8301169050602081019050919050565b600081519050919050565b600082825260208201905092915050565b600081905092915050565b60006112aa826112da565b9050919050565b60008115159050919050565b6000819050919050565b60008190506112d5826114b0565b919050565b600073ffffffffffffffffffffffffffffffffffffffff82169050919050565b6000819050919050565b600063ffffffff82169050919050565b600061131f826112c7565b9050919050565b82818337600083830152505050565b60005b83811015611353578082015181840152602081019050611338565b83811115611362576000848401525b50505050565b6000600282049050600182168061138057607f821691505b6020821081141561139457611393611441565b5b50919050565b60006113a5826112fa565b91507fffffffffffffffffffffffffffffffffffffffffffffffffffffffffffffffff8214156113d8576113d76113e3565b5b600182019050919050565b7f4e487b7100000000000000000000000000000000000000000000000000000000600052601160045260246000fd5b7f4e487b7100000000000000000000000000000000000000000000000000000000600052602160045260246000fd5b7f4e487b7100000000000000000000000000000000000000000000000000000000600052602260045260246000fd5b7f4e487b7100000000000000000000000000000000000000000000000000000000600052604160045260246000fd5b6000601f19601f8301169050919050565b600381106114c1576114c0611412565b5b50565b6114cd8161129f565b81146114d857600080fd5b50565b6114e4816112bd565b81146114ef57600080fd5b50565b6114fb816112fa565b811461150657600080fd5b5056fea2646970667358221220144d717030cd1db99bcbd4da5d5627885b13c0738be36374249eea2770f7e24064736f6c63430008000033",
  "immutableReferences": {},
  "source": "// SPDX-License-Identifier: MIT\n\npragma solidity >=0.5.1 <=0.8.15;\nimport \"./Ownable.sol\";\n\n/// @notice Factory contract, facilitates creation and stores basic Image adata type\ncontract ImageFactory is Ownable {\n    event NewImage(\n        uint256 imageID,\n        string title,\n        string description,\n        bytes32 hash,\n        string ipfs,\n        uint32 creationTime\n    );\n\n    // enum to store three licence types  these are the same types available on Getty Images (https://www.gettyimages.de/eula#:~:text=Getty%20Images%20offers%20three%20types,the%20content%20is%20re-used)\n    enum LicenceType {\n        RF,                 //\"royalty free\"\n        RR,                 //\"rights ready\"\n        RM                  //\"rights managed\"\n    }\n\n    struct Image {\n        string title;\n        string description;\n        bytes32 hash;\n        string ipfs;\n        uint32 creationTime;\n        bool forSale;                       // available for copyright sale\n        bool forLicence;                    // available for licence sale\n        LicenceType licenceType;\n        uint256 price;                      // price for outright copyright purchase - measured in wei\n        uint256 priceLicence;               // price for the licence purchase measured in wei\n        uint256 numOfLicences;              \n        LicenceType[] licencesTypes;        // array to store active license types\n        address[] licencesOwners;           // array to store the addresses with valid licences\n    }\n\n    struct ImageIndex {\n        uint256 arrayIndex;\n        bool exists;\n    }\n\n    // Holds all images on the website\n    Image[] public images;\n\n    uint256 numImages;\n    mapping(uint256 => address) public imageToOwner;\n    mapping(address => uint256) ownerImageCount;\n\n    // Structure required for O(1) lookup if image already exists in contract, prevent duplicates\n    mapping(bytes32 => ImageIndex) public imageHashToIndex;\n\n    function _createImage(\n        string memory _title,\n        string memory _description,\n        bytes32 _hash,\n        string memory _ipfs\n    ) internal {\n        uint32 creationTime = uint32(block.timestamp);\n        LicenceType[] memory licenceTypes;\n        address[] memory licenceAddresses;\n        Image memory newImage = Image(\n            _title,\n            _description,\n            _hash,\n            _ipfs,\n            creationTime,\n            false,\n            false,\n            LicenceType.RF,\n            0,\n            0,\n            0,\n            licenceTypes,\n            licenceAddresses\n        );\n        images.push(newImage);\n\n        emit NewImage(\n            numImages,\n            _title,\n            _description,\n            _hash,\n            _ipfs,\n            creationTime\n        );\n        imageHashToIndex[_hash] = ImageIndex(numImages, true);\n        imageToOwner[numImages] = msg.sender;\n        ownerImageCount[msg.sender]++;\n        numImages++;\n    }\n\n    function createNewImage(\n        string memory _title,\n        string memory _description,\n        string memory _hash,\n        string memory _ipfs\n    ) public {\n        // comparing strings in solidity requires both to be hashed to bytes first, then compared\n        // storing the hash as the bytes object reduces number of times we will need to hash strings\n        bytes32 imageHashBytes = keccak256(abi.encodePacked(_hash));\n        require(\n            imageHashToIndex[imageHashBytes].exists == false,\n            \"Image already exists in contract\"\n        );\n        _createImage(_title, _description, imageHashBytes, _ipfs);\n    }\n\n    /// @notice Getter for the number of images stored in the contract\n    function getNumImages() public view returns (uint256) {\n        return numImages;\n    }\n}\n",
  "sourcePath": "/Users/adamma/Desktop/2022T2/COMP6452/Global-Image-Registry/truffle/contracts/ImageFactory.sol",
  "compiler": {
    "name": "solc",
    "version": "0.8.0+commit.c7dfd78e.Emscripten.clang"
  },
  "schemaVersion": "3.4.8",
  "updatedAt": "2022-07-28T02:32:53.747Z",
  "devdoc": {
    "kind": "dev",
    "methods": {
      "isOwner()": {
        "returns": {
          "_0": "true if `msg.sender` is the owner of the contract."
        }
      },
      "owner()": {
        "returns": {
          "_0": "the address of the owner."
        }
      },
      "renounceOwnership()": {
        "details": "Allows the current owner to relinquish control of the contract."
      },
      "transferOwnership(address)": {
        "details": "Allows the current owner to transfer control of the contract to a newOwner.",
        "params": {
          "newOwner": "The address to transfer ownership to."
        }
      }
    },
    "version": 1
  },
  "userdoc": {
    "kind": "user",
    "methods": {
      "getNumImages()": {
        "notice": "Getter for the number of images stored in the contract"
      },
      "renounceOwnership()": {
        "notice": "Renouncing to ownership will leave the contract without an owner. It will not be possible to call the functions with the `onlyOwner` modifier anymore."
      }
    },
    "notice": "Factory contract, facilitates creation and stores basic Image adata type",
    "version": 1
  }
}