{
  "contractName": "ImageOwnership",
  "abi": [
    {
      "anonymous": false,
      "inputs": [
        {
          "indexed": true,
          "internalType": "address",
          "name": "_owner",
          "type": "address"
        },
        {
          "indexed": true,
          "internalType": "address",
          "name": "_approved",
          "type": "address"
        },
        {
          "indexed": true,
          "internalType": "uint256",
          "name": "_tokenId",
          "type": "uint256"
        }
      ],
      "name": "Approval",
      "type": "event"
    },
    {
      "anonymous": false,
      "inputs": [
        {
          "indexed": false,
          "internalType": "uint256",
          "name": "tokenId",
          "type": "uint256"
        },
        {
          "indexed": false,
          "internalType": "string",
          "name": "title",
          "type": "string"
        },
        {
          "indexed": false,
          "internalType": "address",
          "name": "seller",
          "type": "address"
        },
        {
          "indexed": false,
          "internalType": "address",
          "name": "buyer",
          "type": "address"
        },
        {
          "indexed": false,
          "internalType": "uint256",
          "name": "price",
          "type": "uint256"
        }
      ],
      "name": "ImageSold",
      "type": "event"
    },
    {
      "anonymous": false,
      "inputs": [
        {
          "indexed": false,
          "internalType": "uint256",
          "name": "imageID",
          "type": "uint256"
        },
        {
          "indexed": false,
          "internalType": "string",
          "name": "title",
          "type": "string"
        },
        {
          "indexed": false,
          "internalType": "string",
          "name": "description",
          "type": "string"
        },
        {
          "indexed": false,
          "internalType": "bytes32",
          "name": "hash",
          "type": "bytes32"
        },
        {
          "indexed": false,
          "internalType": "string",
          "name": "ipfs",
          "type": "string"
        },
        {
          "indexed": false,
          "internalType": "uint32",
          "name": "creationTime",
          "type": "uint32"
        }
      ],
      "name": "NewImage",
      "type": "event"
    },
    {
      "anonymous": false,
      "inputs": [
        {
          "indexed": true,
          "internalType": "address",
          "name": "previousOwner",
          "type": "address"
        },
        {
          "indexed": true,
          "internalType": "address",
          "name": "newOwner",
          "type": "address"
        }
      ],
      "name": "OwnershipTransferred",
      "type": "event"
    },
    {
      "anonymous": false,
      "inputs": [
        {
          "indexed": true,
          "internalType": "address",
          "name": "_from",
          "type": "address"
        },
        {
          "indexed": true,
          "internalType": "address",
          "name": "_to",
          "type": "address"
        },
        {
          "indexed": true,
          "internalType": "uint256",
          "name": "_tokenId",
          "type": "uint256"
        }
      ],
      "name": "Transfer",
      "type": "event"
    },
    {
      "inputs": [
        {
          "internalType": "string",
          "name": "_title",
          "type": "string"
        },
        {
          "internalType": "string",
          "name": "_description",
          "type": "string"
        },
        {
          "internalType": "string",
          "name": "_hash",
          "type": "string"
        },
        {
          "internalType": "string",
          "name": "_ipfs",
          "type": "string"
        }
      ],
      "name": "createNewImage",
      "outputs": [],
      "stateMutability": "nonpayable",
      "type": "function"
    },
    {
      "inputs": [],
      "name": "getNumImages",
      "outputs": [
        {
          "internalType": "uint256",
          "name": "",
          "type": "uint256"
        }
      ],
      "stateMutability": "view",
      "type": "function",
      "constant": true
    },
    {
      "inputs": [
        {
          "internalType": "bytes32",
          "name": "",
          "type": "bytes32"
        }
      ],
      "name": "imageHashToIndex",
      "outputs": [
        {
          "internalType": "uint256",
          "name": "arrayIndex",
          "type": "uint256"
        },
        {
          "internalType": "bool",
          "name": "exists",
          "type": "bool"
        }
      ],
      "stateMutability": "view",
      "type": "function",
      "constant": true
    },
    {
      "inputs": [
        {
          "internalType": "uint256",
          "name": "",
          "type": "uint256"
        }
      ],
      "name": "imageToOwner",
      "outputs": [
        {
          "internalType": "address",
          "name": "",
          "type": "address"
        }
      ],
      "stateMutability": "view",
      "type": "function",
      "constant": true
    },
    {
      "inputs": [
        {
          "internalType": "uint256",
          "name": "",
          "type": "uint256"
        }
      ],
      "name": "images",
      "outputs": [
        {
          "internalType": "string",
          "name": "title",
          "type": "string"
        },
        {
          "internalType": "string",
          "name": "description",
          "type": "string"
        },
        {
          "internalType": "bytes32",
          "name": "hash",
          "type": "bytes32"
        },
        {
          "internalType": "string",
          "name": "ipfs",
          "type": "string"
        },
        {
          "internalType": "uint32",
          "name": "creationTime",
          "type": "uint32"
        },
        {
          "internalType": "bool",
          "name": "forSale",
          "type": "bool"
        },
        {
          "internalType": "bool",
          "name": "forLicence",
          "type": "bool"
        },
        {
          "internalType": "enum ImageFactory.LicenceType",
          "name": "licenceType",
          "type": "uint8"
        },
        {
          "internalType": "uint256",
          "name": "price",
          "type": "uint256"
        },
        {
          "internalType": "uint256",
          "name": "priceLicence",
          "type": "uint256"
        },
        {
          "internalType": "uint256",
          "name": "numOfLicences",
          "type": "uint256"
        }
      ],
      "stateMutability": "view",
      "type": "function",
      "constant": true
    },
    {
      "inputs": [],
      "name": "isOwner",
      "outputs": [
        {
          "internalType": "bool",
          "name": "",
          "type": "bool"
        }
      ],
      "stateMutability": "view",
      "type": "function",
      "constant": true
    },
    {
      "inputs": [],
      "name": "owner",
      "outputs": [
        {
          "internalType": "address",
          "name": "",
          "type": "address"
        }
      ],
      "stateMutability": "view",
      "type": "function",
      "constant": true
    },
    {
      "inputs": [],
      "name": "renounceOwnership",
      "outputs": [],
      "stateMutability": "nonpayable",
      "type": "function"
    },
    {
      "inputs": [
        {
          "internalType": "address",
          "name": "newOwner",
          "type": "address"
        }
      ],
      "name": "transferOwnership",
      "outputs": [],
      "stateMutability": "nonpayable",
      "type": "function"
    },
    {
      "inputs": [
        {
          "internalType": "address",
          "name": "_owner",
          "type": "address"
        }
      ],
      "name": "balanceOf",
      "outputs": [
        {
          "internalType": "uint256",
          "name": "",
          "type": "uint256"
        }
      ],
      "stateMutability": "view",
      "type": "function",
      "constant": true
    },
    {
      "inputs": [
        {
          "internalType": "uint256",
          "name": "_tokenId",
          "type": "uint256"
        }
      ],
      "name": "ownerOf",
      "outputs": [
        {
          "internalType": "address",
          "name": "",
          "type": "address"
        }
      ],
      "stateMutability": "view",
      "type": "function",
      "constant": true
    },
    {
      "inputs": [
        {
          "internalType": "address",
          "name": "_from",
          "type": "address"
        },
        {
          "internalType": "address",
          "name": "_to",
          "type": "address"
        },
        {
          "internalType": "uint256",
          "name": "_tokenId",
          "type": "uint256"
        }
      ],
      "name": "transferFrom",
      "outputs": [],
      "stateMutability": "payable",
      "type": "function",
      "payable": true
    },
    {
      "inputs": [
        {
          "internalType": "address",
          "name": "_approved",
          "type": "address"
        },
        {
          "internalType": "uint256",
          "name": "_tokenId",
          "type": "uint256"
        }
      ],
      "name": "approve",
      "outputs": [],
      "stateMutability": "payable",
      "type": "function",
      "payable": true
    },
    {
      "inputs": [
        {
          "internalType": "uint256",
          "name": "_tokenId",
          "type": "uint256"
        }
      ],
      "name": "isTokenApproved",
      "outputs": [
        {
          "internalType": "bool",
          "name": "",
          "type": "bool"
        }
      ],
      "stateMutability": "view",
      "type": "function",
      "constant": true
    },
    {
      "inputs": [
        {
          "internalType": "uint256",
          "name": "_tokenId",
          "type": "uint256"
        },
        {
          "internalType": "uint256",
          "name": "_price",
          "type": "uint256"
        }
      ],
      "name": "listImage",
      "outputs": [],
      "stateMutability": "nonpayable",
      "type": "function"
    },
    {
      "inputs": [
        {
          "internalType": "uint256",
          "name": "_tokenId",
          "type": "uint256"
        },
        {
          "internalType": "uint256",
          "name": "_price",
          "type": "uint256"
        },
        {
          "internalType": "uint256",
          "name": "_licencetype",
          "type": "uint256"
        }
      ],
      "name": "listImageLicence",
      "outputs": [],
      "stateMutability": "nonpayable",
      "type": "function"
    },
    {
      "inputs": [
        {
          "internalType": "uint256",
          "name": "_tokenId",
          "type": "uint256"
        },
        {
          "internalType": "uint256",
          "name": "_price",
          "type": "uint256"
        }
      ],
      "name": "changeListingPrice",
      "outputs": [],
      "stateMutability": "nonpayable",
      "type": "function"
    },
    {
      "inputs": [
        {
          "internalType": "uint256",
          "name": "_tokenId",
          "type": "uint256"
        }
      ],
      "name": "unlistImage",
      "outputs": [],
      "stateMutability": "nonpayable",
      "type": "function"
    },
    {
      "inputs": [
        {
          "internalType": "uint256",
          "name": "_tokenId",
          "type": "uint256"
        }
      ],
      "name": "unlistImageLicence",
      "outputs": [],
      "stateMutability": "nonpayable",
      "type": "function"
    },
    {
      "inputs": [
        {
          "internalType": "uint256",
          "name": "_tokenId",
          "type": "uint256"
        }
      ],
      "name": "buyImage",
      "outputs": [],
      "stateMutability": "payable",
      "type": "function",
      "payable": true
    },
    {
      "inputs": [
        {
          "internalType": "uint256",
          "name": "_tokenId",
          "type": "uint256"
        }
      ],
      "name": "buyLicence",
      "outputs": [],
      "stateMutability": "payable",
      "type": "function",
      "payable": true
    },
    {
      "inputs": [
        {
          "internalType": "uint256",
          "name": "_tokenId",
          "type": "uint256"
        }
      ],
      "name": "getImageDetails",
      "outputs": [
        {
          "internalType": "string",
          "name": "title",
          "type": "string"
        },
        {
          "internalType": "string",
          "name": "description",
          "type": "string"
        },
        {
          "internalType": "bool",
          "name": "forSale",
          "type": "bool"
        },
        {
          "internalType": "uint256",
          "name": "price",
          "type": "uint256"
        },
        {
          "internalType": "string",
          "name": "ipfs",
          "type": "string"
        },
        {
          "internalType": "uint256",
          "name": "priceLicence",
          "type": "uint256"
        },
        {
          "internalType": "uint256",
          "name": "numLicences",
          "type": "uint256"
        },
        {
          "internalType": "enum ImageFactory.LicenceType",
          "name": "licenceType",
          "type": "uint8"
        }
      ],
      "stateMutability": "view",
      "type": "function",
      "constant": true
    },
    {
      "inputs": [
        {
          "internalType": "uint256",
          "name": "_tokenId",
          "type": "uint256"
        }
      ],
      "name": "getImageOwner",
      "outputs": [
        {
          "internalType": "address",
          "name": "",
          "type": "address"
        }
      ],
      "stateMutability": "view",
      "type": "function",
      "constant": true
    },
    {
      "inputs": [
        {
          "internalType": "uint256",
          "name": "_tokenId",
          "type": "uint256"
        }
      ],
      "name": "isImageListed",
      "outputs": [
        {
          "internalType": "bool",
          "name": "",
          "type": "bool"
        }
      ],
      "stateMutability": "view",
      "type": "function",
      "constant": true
    },
    {
      "inputs": [
        {
          "internalType": "uint256",
          "name": "_tokenId",
          "type": "uint256"
        }
      ],
      "name": "isImageListedForLicence",
      "outputs": [
        {
          "internalType": "bool",
          "name": "",
          "type": "bool"
        }
      ],
      "stateMutability": "view",
      "type": "function",
      "constant": true
    },
    {
      "inputs": [
        {
          "internalType": "uint256",
          "name": "_imageId",
          "type": "uint256"
        }
      ],
      "name": "isAddrLicencingImage",
      "outputs": [
        {
          "internalType": "bool",
          "name": "",
          "type": "bool"
        }
      ],
      "stateMutability": "view",
      "type": "function",
      "constant": true
    }
  ],
  "bytecode": "0x608060405234801561001057600080fd5b50336000806101000a81548173ffffffffffffffffffffffffffffffffffffffff021916908373ffffffffffffffffffffffffffffffffffffffff16021790555060008054906101000a900473ffffffffffffffffffffffffffffffffffffffff1673ffffffffffffffffffffffffffffffffffffffff16600073ffffffffffffffffffffffffffffffffffffffff167f8be0079c531659141344cd1fd0a4f28419497f9722a3daafe3b4186f6b6457e060405160405180910390a3613e62806100db6000396000f3fe6080604052600436106101815760003560e01c8063715018a6116100d1578063ca73f8ad1161008a578063e4cf1b6711610064578063e4cf1b671461059f578063ea68881b146105c8578063f2fde38b146105f1578063fb34c7861461061a57610181565b8063ca73f8ad1461050e578063d58e9d3e14610539578063e0f0e6ea1461056257610181565b8063715018a6146103f4578063848564821461040b5780638da5cb5b146104525780638f32d59b1461047d578063a9b11426146104a8578063baa872e3146104e557610181565b806331d1f3341161013e5780634c620238116101185780634c620238146103145780635d3c05081461033d5780636352211e1461037a57806370a08231146103b757610181565b806331d1f3341461027057806334db2ef71461029957806342947657146102d757610181565b806303e6af2e1461018657806308618a21146101a2578063095ea7b3146101df5780630e51cce0146101fb578063201bf5051461021757806323b872dd14610254575b600080fd5b6101a0600480360381019061019b9190613032565b61065e565b005b3480156101ae57600080fd5b506101c960048036038101906101c49190613032565b61082f565b6040516101d69190613643565b60405180910390f35b6101f960048036038101906101f49190612f0a565b610898565b005b61021560048036038101906102109190613032565b6109ec565b005b34801561022357600080fd5b5061023e60048036038101906102399190613032565b610c59565b60405161024b9190613643565b60405180910390f35b61026e60048036038101906102699190612ebb565b610cbb565b005b34801561027c57600080fd5b506102976004803603810190610292919061305b565b610e25565b005b3480156102a557600080fd5b506102c060048036038101906102bb9190612f46565b610fa9565b6040516102ce92919061396c565b60405180910390f35b3480156102e357600080fd5b506102fe60048036038101906102f99190613032565b610fda565b60405161030b9190613628565b60405180910390f35b34801561032057600080fd5b5061033b60048036038101906103369190613097565b61100d565b005b34801561034957600080fd5b50610364600480360381019061035f9190613032565b611441565b6040516103719190613643565b60405180910390f35b34801561038657600080fd5b506103a1600480360381019061039c9190613032565b611566565b6040516103ae9190613628565b60405180910390f35b3480156103c357600080fd5b506103de60048036038101906103d99190612e92565b6115a3565b6040516103eb9190613951565b60405180910390f35b34801561040057600080fd5b506104096115ec565b005b34801561041757600080fd5b50610432600480360381019061042d9190613032565b6116bb565b6040516104499b9a999897969594939291906136f1565b60405180910390f35b34801561045e57600080fd5b506104676118f4565b6040516104749190613628565b60405180910390f35b34801561048957600080fd5b5061049261191d565b60405161049f9190613643565b60405180910390f35b3480156104b457600080fd5b506104cf60048036038101906104ca9190613032565b611974565b6040516104dc9190613628565b60405180910390f35b3480156104f157600080fd5b5061050c60048036038101906105079190613032565b6119b1565b005b34801561051a57600080fd5b50610523611b05565b6040516105309190613951565b60405180910390f35b34801561054557600080fd5b50610560600480360381019061055b9190613032565b611b0f565b005b34801561056e57600080fd5b5061058960048036038101906105849190613032565b611c63565b6040516105969190613643565b60405180910390f35b3480156105ab57600080fd5b506105c660048036038101906105c19190612f6f565b611d01565b005b3480156105d457600080fd5b506105ef60048036038101906105ea919061305b565b611da9565b005b3480156105fd57600080fd5b5061061860048036038101906106139190612e92565b611f90565b005b34801561062657600080fd5b50610641600480360381019061063c9190613032565b611fad565b60405161065598979695949392919061365e565b60405180910390f35b806106688161082f565b6106a7576040517f08c379a000000000000000000000000000000000000000000000000000000000815260040161069e90613871565b60405180910390fd5b6000600183815481106106e3577f4e487b7100000000000000000000000000000000000000000000000000000000600052603260045260246000fd5b90600052602060002090600a02019050806005015434101561073a576040517f08c379a0000000000000000000000000000000000000000000000000000000008152600401610731906138d1565b60405180910390fd5b600033905060006003600086815260200190815260200160002060009054906101000a900473ffffffffffffffffffffffffffffffffffffffff1690508073ffffffffffffffffffffffffffffffffffffffff166108fc349081150290604051600060405180830381858888f193505050501580156107bd573d6000803e3d6000fd5b5060008360040160046101000a81548160ff0219169083151502179055506107e68183876124b1565b7f7c79a0c4f1e14e93f7d1c1054deac0eacee34e65844b29b2b55ac71ab48dff958584600001838534604051610820959493929190613a0b565b60405180910390a15050505050565b6000600115156001838154811061086f577f4e487b7100000000000000000000000000000000000000000000000000000000600052603260045260246000fd5b90600052602060002090600a020160040160049054906101000a900460ff161515149050919050565b806003600082815260200190815260200160002060009054906101000a900473ffffffffffffffffffffffffffffffffffffffff1673ffffffffffffffffffffffffffffffffffffffff163373ffffffffffffffffffffffffffffffffffffffff161461093a576040517f08c379a000000000000000000000000000000000000000000000000000000000815260040161093190613891565b60405180910390fd5b826006600084815260200190815260200160002060006101000a81548173ffffffffffffffffffffffffffffffffffffffff021916908373ffffffffffffffffffffffffffffffffffffffff160217905550818373ffffffffffffffffffffffffffffffffffffffff163373ffffffffffffffffffffffffffffffffffffffff167f8c5be1e5ebec7d5bd14f71427d1e84f3dd0314c0f7b2291e5b200ac8c7c3b92560405160405180910390a4505050565b806109f681610c59565b610a35576040517f08c379a0000000000000000000000000000000000000000000000000000000008152600401610a2c90613851565b60405180910390fd5b600060018381548110610a71577f4e487b7100000000000000000000000000000000000000000000000000000000600052603260045260246000fd5b90600052602060002090600a020190508060060154341015610ac8576040517f08c379a0000000000000000000000000000000000000000000000000000000008152600401610abf90613811565b60405180910390fd5b60006003600085815260200190815260200160002060009054906101000a900473ffffffffffffffffffffffffffffffffffffffff1690508073ffffffffffffffffffffffffffffffffffffffff166108fc349081150290604051600060405180830381858888f19350505050158015610b46573d6000803e3d6000fd5b50816008018260040160069054906101000a900460ff1690806001815401808255809150506001900390600052602060002090602091828204019190069091909190916101000a81548160ff02191690836002811115610bcf577f4e487b7100000000000000000000000000000000000000000000000000000000600052602160045260246000fd5b021790555081600901339080600181540180825580915050600190039060005260206000200160009091909190916101000a81548173ffffffffffffffffffffffffffffffffffffffff021916908373ffffffffffffffffffffffffffffffffffffffff160217905550816007016000815480929190610c4e90613cbd565b919050555050505050565b600060018281548110610c95577f4e487b7100000000000000000000000000000000000000000000000000000000600052603260045260246000fd5b90600052602060002090600a020160040160059054906101000a900460ff169050919050565b3373ffffffffffffffffffffffffffffffffffffffff166003600083815260200190815260200160002060009054906101000a900473ffffffffffffffffffffffffffffffffffffffff1673ffffffffffffffffffffffffffffffffffffffff16148015610d8757503373ffffffffffffffffffffffffffffffffffffffff166006600083815260200190815260200160002060009054906101000a900473ffffffffffffffffffffffffffffffffffffffff1673ffffffffffffffffffffffffffffffffffffffff16145b610dc6576040517f08c379a0000000000000000000000000000000000000000000000000000000008152600401610dbd90613931565b60405180910390fd5b60001515610dd38261082f565b151514610e15576040517f08c379a0000000000000000000000000000000000000000000000000000000008152600401610e0c90613911565b60405180910390fd5b610e208383836124b1565b505050565b816003600082815260200190815260200160002060009054906101000a900473ffffffffffffffffffffffffffffffffffffffff1673ffffffffffffffffffffffffffffffffffffffff163373ffffffffffffffffffffffffffffffffffffffff1614610ec7576040517f08c379a0000000000000000000000000000000000000000000000000000000008152600401610ebe90613891565b60405180910390fd5b82610ed18161082f565b610f10576040517f08c379a0000000000000000000000000000000000000000000000000000000008152600401610f0790613871565b60405180910390fd5b60008311610f53576040517f08c379a0000000000000000000000000000000000000000000000000000000008152600401610f4a906138b1565b60405180910390fd5b8260018581548110610f8e577f4e487b7100000000000000000000000000000000000000000000000000000000600052603260045260246000fd5b90600052602060002090600a02016005018190555050505050565b60056020528060005260406000206000915090508060000154908060010160009054906101000a900460ff16905082565b60036020528060005260406000206000915054906101000a900473ffffffffffffffffffffffffffffffffffffffff1681565b826003600082815260200190815260200160002060009054906101000a900473ffffffffffffffffffffffffffffffffffffffff1673ffffffffffffffffffffffffffffffffffffffff163373ffffffffffffffffffffffffffffffffffffffff16146110af576040517f08c379a00000000000000000000000000000000000000000000000000000000081526004016110a690613891565b60405180910390fd5b836110b981611c63565b6110f8576040517f08c379a00000000000000000000000000000000000000000000000000000000081526004016110ef90613831565b60405180910390fd5b8461110281610c59565b15611142576040517f08c379a0000000000000000000000000000000000000000000000000000000008152600401611139906137b1565b60405180910390fd5b60008414806111515750600184145b8061115c5750600284145b61119b576040517f08c379a0000000000000000000000000000000000000000000000000000000008152600401611192906138f1565b60405180910390fd5b60018087815481106111d6577f4e487b7100000000000000000000000000000000000000000000000000000000600052603260045260246000fd5b90600052602060002090600a020160040160056101000a81548160ff0219169083151502179055508460018781548110611239577f4e487b7100000000000000000000000000000000000000000000000000000000600052603260045260246000fd5b90600052602060002090600a02016006018190555060008414156112f257600060018781548110611293577f4e487b7100000000000000000000000000000000000000000000000000000000600052603260045260246000fd5b90600052602060002090600a020160040160066101000a81548160ff021916908360028111156112ec577f4e487b7100000000000000000000000000000000000000000000000000000000600052602160045260246000fd5b02179055505b6001841415611395576001808781548110611336577f4e487b7100000000000000000000000000000000000000000000000000000000600052603260045260246000fd5b90600052602060002090600a020160040160066101000a81548160ff0219169083600281111561138f577f4e487b7100000000000000000000000000000000000000000000000000000000600052602160045260246000fd5b02179055505b6002841415611439576002600187815481106113da577f4e487b7100000000000000000000000000000000000000000000000000000000600052603260045260246000fd5b90600052602060002090600a020160040160066101000a81548160ff02191690836002811115611433577f4e487b7100000000000000000000000000000000000000000000000000000000600052602160045260246000fd5b02179055505b505050505050565b6000806001838154811061147e577f4e487b7100000000000000000000000000000000000000000000000000000000600052603260045260246000fd5b90600052602060002090600a0201905060008160070154905060005b81811015611559573373ffffffffffffffffffffffffffffffffffffffff168360090182815481106114f5577f4e487b7100000000000000000000000000000000000000000000000000000000600052603260045260246000fd5b9060005260206000200160009054906101000a900473ffffffffffffffffffffffffffffffffffffffff1673ffffffffffffffffffffffffffffffffffffffff1614156115485760019350505050611561565b8061155290613cbd565b905061149a565b506000925050505b919050565b60006003600083815260200190815260200160002060009054906101000a900473ffffffffffffffffffffffffffffffffffffffff169050919050565b6000600460008373ffffffffffffffffffffffffffffffffffffffff1673ffffffffffffffffffffffffffffffffffffffff168152602001908152602001600020549050919050565b6115f461191d565b6115fd57600080fd5b600073ffffffffffffffffffffffffffffffffffffffff1660008054906101000a900473ffffffffffffffffffffffffffffffffffffffff1673ffffffffffffffffffffffffffffffffffffffff167f8be0079c531659141344cd1fd0a4f28419497f9722a3daafe3b4186f6b6457e060405160405180910390a360008060006101000a81548173ffffffffffffffffffffffffffffffffffffffff021916908373ffffffffffffffffffffffffffffffffffffffff160217905550565b600181815481106116cb57600080fd5b90600052602060002090600a02016000915090508060000180546116ee90613c8b565b80601f016020809104026020016040519081016040528092919081815260200182805461171a90613c8b565b80156117675780601f1061173c57610100808354040283529160200191611767565b820191906000526020600020905b81548152906001019060200180831161174a57829003601f168201915b50505050509080600101805461177c90613c8b565b80601f01602080910402602001604051908101604052809291908181526020018280546117a890613c8b565b80156117f55780601f106117ca576101008083540402835291602001916117f5565b820191906000526020600020905b8154815290600101906020018083116117d857829003601f168201915b50505050509080600201549080600301805461181090613c8b565b80601f016020809104026020016040519081016040528092919081815260200182805461183c90613c8b565b80156118895780601f1061185e57610100808354040283529160200191611889565b820191906000526020600020905b81548152906001019060200180831161186c57829003601f168201915b5050505050908060040160009054906101000a900463ffffffff16908060040160049054906101000a900460ff16908060040160059054906101000a900460ff16908060040160069054906101000a900460ff1690806005015490806006015490806007015490508b565b60008060009054906101000a900473ffffffffffffffffffffffffffffffffffffffff16905090565b60008060009054906101000a900473ffffffffffffffffffffffffffffffffffffffff1673ffffffffffffffffffffffffffffffffffffffff163373ffffffffffffffffffffffffffffffffffffffff1614905090565b60006003600083815260200190815260200160002060009054906101000a900473ffffffffffffffffffffffffffffffffffffffff169050919050565b806003600082815260200190815260200160002060009054906101000a900473ffffffffffffffffffffffffffffffffffffffff1673ffffffffffffffffffffffffffffffffffffffff163373ffffffffffffffffffffffffffffffffffffffff1614611a53576040517f08c379a0000000000000000000000000000000000000000000000000000000008152600401611a4a90613891565b60405180910390fd5b81611a5d81610c59565b611a9c576040517f08c379a0000000000000000000000000000000000000000000000000000000008152600401611a9390613851565b60405180910390fd5b600060018481548110611ad8577f4e487b7100000000000000000000000000000000000000000000000000000000600052603260045260246000fd5b90600052602060002090600a020160040160056101000a81548160ff021916908315150217905550505050565b6000600254905090565b806003600082815260200190815260200160002060009054906101000a900473ffffffffffffffffffffffffffffffffffffffff1673ffffffffffffffffffffffffffffffffffffffff163373ffffffffffffffffffffffffffffffffffffffff1614611bb1576040517f08c379a0000000000000000000000000000000000000000000000000000000008152600401611ba890613891565b60405180910390fd5b81611bbb8161082f565b611bfa576040517f08c379a0000000000000000000000000000000000000000000000000000000008152600401611bf190613871565b60405180910390fd5b600060018481548110611c36577f4e487b7100000000000000000000000000000000000000000000000000000000600052603260045260246000fd5b90600052602060002090600a020160040160046101000a81548160ff021916908315150217905550505050565b60006006600083815260200190815260200160002060009054906101000a900473ffffffffffffffffffffffffffffffffffffffff1673ffffffffffffffffffffffffffffffffffffffff166003600084815260200190815260200160002060009054906101000a900473ffffffffffffffffffffffffffffffffffffffff1673ffffffffffffffffffffffffffffffffffffffff16149050919050565b600082604051602001611d149190613611565b604051602081830303815290604052805190602001209050600015156005600083815260200190815260200160002060010160009054906101000a900460ff16151514611d96576040517f08c379a0000000000000000000000000000000000000000000000000000000008152600401611d8d906137d1565b60405180910390fd5b611da28585838561268f565b5050505050565b816003600082815260200190815260200160002060009054906101000a900473ffffffffffffffffffffffffffffffffffffffff1673ffffffffffffffffffffffffffffffffffffffff163373ffffffffffffffffffffffffffffffffffffffff1614611e4b576040517f08c379a0000000000000000000000000000000000000000000000000000000008152600401611e4290613891565b60405180910390fd5b82611e5581611c63565b611e94576040517f08c379a0000000000000000000000000000000000000000000000000000000008152600401611e8b90613831565b60405180910390fd5b60008311611ed7576040517f08c379a0000000000000000000000000000000000000000000000000000000008152600401611ece906137f1565b60405180910390fd5b6001808581548110611f12577f4e487b7100000000000000000000000000000000000000000000000000000000600052603260045260246000fd5b90600052602060002090600a020160040160046101000a81548160ff0219169083151502179055508260018581548110611f75577f4e487b7100000000000000000000000000000000000000000000000000000000600052603260045260246000fd5b90600052602060002090600a02016005018190555050505050565b611f9861191d565b611fa157600080fd5b611faa81612a4c565b50565b606080600080606060008060008060018a81548110611ff5577f4e487b7100000000000000000000000000000000000000000000000000000000600052603260045260246000fd5b90600052602060002090600a0201604051806101a001604052908160008201805461201f90613c8b565b80601f016020809104026020016040519081016040528092919081815260200182805461204b90613c8b565b80156120985780601f1061206d57610100808354040283529160200191612098565b820191906000526020600020905b81548152906001019060200180831161207b57829003601f168201915b505050505081526020016001820180546120b190613c8b565b80601f01602080910402602001604051908101604052809291908181526020018280546120dd90613c8b565b801561212a5780601f106120ff5761010080835404028352916020019161212a565b820191906000526020600020905b81548152906001019060200180831161210d57829003601f168201915b505050505081526020016002820154815260200160038201805461214d90613c8b565b80601f016020809104026020016040519081016040528092919081815260200182805461217990613c8b565b80156121c65780601f1061219b576101008083540402835291602001916121c6565b820191906000526020600020905b8154815290600101906020018083116121a957829003601f168201915b505050505081526020016004820160009054906101000a900463ffffffff1663ffffffff1663ffffffff1681526020016004820160049054906101000a900460ff161515151581526020016004820160059054906101000a900460ff161515151581526020016004820160069054906101000a900460ff166002811115612276577f4e487b7100000000000000000000000000000000000000000000000000000000600052602160045260246000fd5b60028111156122ae577f4e487b7100000000000000000000000000000000000000000000000000000000600052602160045260246000fd5b81526020016005820154815260200160068201548152602001600782015481526020016008820180548060200260200160405190810160405280929190818152602001828054801561237a57602002820191906000526020600020906000905b82829054906101000a900460ff166002811115612354577f4e487b7100000000000000000000000000000000000000000000000000000000600052602160045260246000fd5b8152602001906001019060208260000104928301926001038202915080841161230e5790505b505050505081526020016009820180548060200260200160405190810160405280929190818152602001828054801561240857602002820191906000526020600020905b8160009054906101000a900473ffffffffffffffffffffffffffffffffffffffff1673ffffffffffffffffffffffffffffffffffffffff16815260200190600101908083116123be575b505050505081525050905060018a8154811061244d577f4e487b7100000000000000000000000000000000000000000000000000000000600052603260045260246000fd5b90600052602060002090600a020160040160049054906101000a900460ff169650806000015181602001518883610100015184606001518561012001518661014001518760e001519850985098509850985098509850985050919395975091939597565b6125046001600460008573ffffffffffffffffffffffffffffffffffffffff1673ffffffffffffffffffffffffffffffffffffffff16815260200190815260200160002054612b4390919063ffffffff16565b600460008473ffffffffffffffffffffffffffffffffffffffff1673ffffffffffffffffffffffffffffffffffffffff1681526020019081526020016000208190555061259a6001600460003373ffffffffffffffffffffffffffffffffffffffff1673ffffffffffffffffffffffffffffffffffffffff16815260200190815260200160002054612b9590919063ffffffff16565b600460003373ffffffffffffffffffffffffffffffffffffffff1673ffffffffffffffffffffffffffffffffffffffff16815260200190815260200160002081905550816003600083815260200190815260200160002060006101000a81548173ffffffffffffffffffffffffffffffffffffffff021916908373ffffffffffffffffffffffffffffffffffffffff160217905550808273ffffffffffffffffffffffffffffffffffffffff168473ffffffffffffffffffffffffffffffffffffffff167fddf252ad1be2c89b69c2b068fc378daa952ba7f163c4a11628f55a4df523b3ef60405160405180910390a4505050565b60004290506060806000604051806101a001604052808981526020018881526020018781526020018681526020018563ffffffff16815260200160001515815260200160001515815260200160006002811115612715577f4e487b7100000000000000000000000000000000000000000000000000000000600052602160045260246000fd5b815260200160008152602001600081526020016000815260200184815260200183815250905060018190806001815401808255809150506001900390600052602060002090600a02016000909190919091506000820151816000019080519060200190612783929190612be2565b5060208201518160010190805190602001906127a0929190612be2565b506040820151816002015560608201518160030190805190602001906127c7929190612be2565b5060808201518160040160006101000a81548163ffffffff021916908363ffffffff16021790555060a08201518160040160046101000a81548160ff02191690831515021790555060c08201518160040160056101000a81548160ff02191690831515021790555060e08201518160040160066101000a81548160ff02191690836002811115612880577f4e487b7100000000000000000000000000000000000000000000000000000000600052602160045260246000fd5b02179055506101008201518160050155610120820151816006015561014082015181600701556101608201518160080190805190602001906128c3929190612c68565b506101808201518160090190805190602001906128e1929190612d44565b5050507f91e7288b324b4a4719c3431b68d8a909cc64ecf139b0ce584015fae593b7f353600254898989898960405161291f96959493929190613995565b60405180910390a16040518060400160405280600254815260200160011515815250600560008881526020019081526020016000206000820151816000015560208201518160010160006101000a81548160ff0219169083151502179055509050503360036000600254815260200190815260200160002060006101000a81548173ffffffffffffffffffffffffffffffffffffffff021916908373ffffffffffffffffffffffffffffffffffffffff160217905550600460003373ffffffffffffffffffffffffffffffffffffffff1673ffffffffffffffffffffffffffffffffffffffff1681526020019081526020016000206000815480929190612a2590613cbd565b919050555060026000815480929190612a3d90613cbd565b91905055505050505050505050565b600073ffffffffffffffffffffffffffffffffffffffff168173ffffffffffffffffffffffffffffffffffffffff161415612a8657600080fd5b8073ffffffffffffffffffffffffffffffffffffffff1660008054906101000a900473ffffffffffffffffffffffffffffffffffffffff1673ffffffffffffffffffffffffffffffffffffffff167f8be0079c531659141344cd1fd0a4f28419497f9722a3daafe3b4186f6b6457e060405160405180910390a3806000806101000a81548173ffffffffffffffffffffffffffffffffffffffff021916908373ffffffffffffffffffffffffffffffffffffffff16021790555050565b6000808284612b529190613b02565b905083811015612b8b577f4e487b7100000000000000000000000000000000000000000000000000000000600052600160045260246000fd5b8091505092915050565b600082821115612bce577f4e487b7100000000000000000000000000000000000000000000000000000000600052600160045260246000fd5b8183612bda9190613b58565b905092915050565b828054612bee90613c8b565b90600052602060002090601f016020900481019282612c105760008555612c57565b82601f10612c2957805160ff1916838001178555612c57565b82800160010185558215612c57579182015b82811115612c56578251825591602001919060010190612c3b565b5b509050612c649190612dce565b5090565b82805482825590600052602060002090601f01602090048101928215612d335791602002820160005b83821115612d0457835183826101000a81548160ff02191690836002811115612ce3577f4e487b7100000000000000000000000000000000000000000000000000000000600052602160045260246000fd5b02179055509260200192600101602081600001049283019260010302612c91565b8015612d315782816101000a81549060ff0219169055600101602081600001049283019260010302612d04565b505b509050612d409190612dce565b5090565b828054828255906000526020600020908101928215612dbd579160200282015b82811115612dbc5782518260006101000a81548173ffffffffffffffffffffffffffffffffffffffff021916908373ffffffffffffffffffffffffffffffffffffffff16021790555091602001919060010190612d64565b5b509050612dca9190612dce565b5090565b5b80821115612de7576000816000905550600101612dcf565b5090565b6000612dfe612df984613a96565b613a65565b905082815260208101848484011115612e1657600080fd5b612e21848285613c49565b509392505050565b600081359050612e3881613de7565b92915050565b600081359050612e4d81613dfe565b92915050565b600082601f830112612e6457600080fd5b8135612e74848260208601612deb565b91505092915050565b600081359050612e8c81613e15565b92915050565b600060208284031215612ea457600080fd5b6000612eb284828501612e29565b91505092915050565b600080600060608486031215612ed057600080fd5b6000612ede86828701612e29565b9350506020612eef86828701612e29565b9250506040612f0086828701612e7d565b9150509250925092565b60008060408385031215612f1d57600080fd5b6000612f2b85828601612e29565b9250506020612f3c85828601612e7d565b9150509250929050565b600060208284031215612f5857600080fd5b6000612f6684828501612e3e565b91505092915050565b60008060008060808587031215612f8557600080fd5b600085013567ffffffffffffffff811115612f9f57600080fd5b612fab87828801612e53565b945050602085013567ffffffffffffffff811115612fc857600080fd5b612fd487828801612e53565b935050604085013567ffffffffffffffff811115612ff157600080fd5b612ffd87828801612e53565b925050606085013567ffffffffffffffff81111561301a57600080fd5b61302687828801612e53565b91505092959194509250565b60006020828403121561304457600080fd5b600061305284828501612e7d565b91505092915050565b6000806040838503121561306e57600080fd5b600061307c85828601612e7d565b925050602061308d85828601612e7d565b9150509250929050565b6000806000606084860312156130ac57600080fd5b60006130ba86828701612e7d565b93505060206130cb86828701612e7d565b92505060406130dc86828701612e7d565b9150509250925092565b6130ef81613c01565b82525050565b6130fe81613b8c565b82525050565b61310d81613b9e565b82525050565b61311c81613baa565b82525050565b61312b81613c13565b82525050565b600061313c82613adb565b6131468185613ae6565b9350613156818560208601613c58565b61315f81613dc2565b840191505092915050565b600061317582613adb565b61317f8185613af7565b935061318f818560208601613c58565b80840191505092915050565b600081546131a881613c8b565b6131b28186613ae6565b945060018216600081146131cd57600181146131df57613212565b60ff1983168652602086019350613212565b6131e885613ac6565b60005b8381101561320a578154818901526001820191506020810190506131eb565b808801955050505b50505092915050565b6000613228602583613ae6565b91507f496d61676520697320616c7265616479206c697374656420666f72206c69636560008301527f6e63696e670000000000000000000000000000000000000000000000000000006020830152604082019050919050565b600061328e602083613ae6565b91507f496d61676520616c72656164792065786973747320696e20636f6e74726163746000830152602082019050919050565b60006132ce601f83613ae6565b91507f50726963652063616e6e6f74206265206c657373207468616e203020776569006000830152602082019050919050565b600061330e602183613ae6565b91507f496e73756666696369656e7420707269636520746f20627579206c6963656e6360008301527f65000000000000000000000000000000000000000000000000000000000000006020830152604082019050919050565b6000613374601583613ae6565b91507f496d616765206973206e6f7420617070726f76656400000000000000000000006000830152602082019050919050565b60006133b4601a83613ae6565b91507f496d616765206973206e6f7420666f72206c6963656e63696e670000000000006000830152602082019050919050565b60006133f4601583613ae6565b91507f496d616765206973206e6f7420666f722073616c6500000000000000000000006000830152602082019050919050565b6000613434601383613ae6565b91507f53656e646572206973206e6f74206f776e6572000000000000000000000000006000830152602082019050919050565b6000613474602083613ae6565b91507f4e6577207072696365206d7573742062652067726561746572207468616e20306000830152602082019050919050565b60006134b4601f83613ae6565b91507f496e73756666696369656e7420707269636520746f2062757920696d616765006000830152602082019050919050565b60006134f4601483613ae6565b91507f496e76616c6964206c6963656e636520747970650000000000000000000000006000830152602082019050919050565b6000613534602283613ae6565b91507f4c697374656420696d6167652063616e6e6f74206265207472616e736665727260008301527f65640000000000000000000000000000000000000000000000000000000000006020830152604082019050919050565b600061359a602d83613ae6565b91507f53656e646572206973206e6f74206f776e657220616e6420696d61676520697360008301527f206e6f7420617070726f766564000000000000000000000000000000000000006020830152604082019050919050565b6135fc81613be7565b82525050565b61360b81613bf1565b82525050565b600061361d828461316a565b915081905092915050565b600060208201905061363d60008301846130f5565b92915050565b60006020820190506136586000830184613104565b92915050565b6000610100820190508181036000830152613679818b613131565b9050818103602083015261368d818a613131565b905061369c6040830189613104565b6136a960608301886135f3565b81810360808301526136bb8187613131565b90506136ca60a08301866135f3565b6136d760c08301856135f3565b6136e460e0830184613122565b9998505050505050505050565b600061016082019050818103600083015261370c818e613131565b90508181036020830152613720818d613131565b905061372f604083018c613113565b8181036060830152613741818b613131565b9050613750608083018a613602565b61375d60a0830189613104565b61376a60c0830188613104565b61377760e0830187613122565b6137856101008301866135f3565b6137936101208301856135f3565b6137a16101408301846135f3565b9c9b505050505050505050505050565b600060208201905081810360008301526137ca8161321b565b9050919050565b600060208201905081810360008301526137ea81613281565b9050919050565b6000602082019050818103600083015261380a816132c1565b9050919050565b6000602082019050818103600083015261382a81613301565b9050919050565b6000602082019050818103600083015261384a81613367565b9050919050565b6000602082019050818103600083015261386a816133a7565b9050919050565b6000602082019050818103600083015261388a816133e7565b9050919050565b600060208201905081810360008301526138aa81613427565b9050919050565b600060208201905081810360008301526138ca81613467565b9050919050565b600060208201905081810360008301526138ea816134a7565b9050919050565b6000602082019050818103600083015261390a816134e7565b9050919050565b6000602082019050818103600083015261392a81613527565b9050919050565b6000602082019050818103600083015261394a8161358d565b9050919050565b600060208201905061396660008301846135f3565b92915050565b600060408201905061398160008301856135f3565b61398e6020830184613104565b9392505050565b600060c0820190506139aa60008301896135f3565b81810360208301526139bc8188613131565b905081810360408301526139d08187613131565b90506139df6060830186613113565b81810360808301526139f18185613131565b9050613a0060a0830184613602565b979650505050505050565b600060a082019050613a2060008301886135f3565b8181036020830152613a32818761319b565b9050613a4160408301866130e6565b613a4e60608301856130e6565b613a5b60808301846135f3565b9695505050505050565b6000604051905081810181811067ffffffffffffffff82111715613a8c57613a8b613d93565b5b8060405250919050565b600067ffffffffffffffff821115613ab157613ab0613d93565b5b601f19601f8301169050602081019050919050565b60008190508160005260206000209050919050565b600081519050919050565b600082825260208201905092915050565b600081905092915050565b6000613b0d82613be7565b9150613b1883613be7565b9250827fffffffffffffffffffffffffffffffffffffffffffffffffffffffffffffffff03821115613b4d57613b4c613d06565b5b828201905092915050565b6000613b6382613be7565b9150613b6e83613be7565b925082821015613b8157613b80613d06565b5b828203905092915050565b6000613b9782613bc7565b9050919050565b60008115159050919050565b6000819050919050565b6000819050613bc282613dd3565b919050565b600073ffffffffffffffffffffffffffffffffffffffff82169050919050565b6000819050919050565b600063ffffffff82169050919050565b6000613c0c82613c25565b9050919050565b6000613c1e82613bb4565b9050919050565b6000613c3082613c37565b9050919050565b6000613c4282613bc7565b9050919050565b82818337600083830152505050565b60005b83811015613c76578082015181840152602081019050613c5b565b83811115613c85576000848401525b50505050565b60006002820490506001821680613ca357607f821691505b60208210811415613cb757613cb6613d64565b5b50919050565b6000613cc882613be7565b91507fffffffffffffffffffffffffffffffffffffffffffffffffffffffffffffffff821415613cfb57613cfa613d06565b5b600182019050919050565b7f4e487b7100000000000000000000000000000000000000000000000000000000600052601160045260246000fd5b7f4e487b7100000000000000000000000000000000000000000000000000000000600052602160045260246000fd5b7f4e487b7100000000000000000000000000000000000000000000000000000000600052602260045260246000fd5b7f4e487b7100000000000000000000000000000000000000000000000000000000600052604160045260246000fd5b6000601f19601f8301169050919050565b60038110613de457613de3613d35565b5b50565b613df081613b8c565b8114613dfb57600080fd5b50565b613e0781613baa565b8114613e1257600080fd5b50565b613e1e81613be7565b8114613e2957600080fd5b5056fea2646970667358221220e5621324e91edea8d2742bc032befde92eb3f18b780964adb3358c8c0db7ea8564736f6c63430008000033",
  "immutableReferences": {},
  "source": "// SPDX-License-Identifier: MIT\r\n\r\npragma solidity >=0.5.1 <=0.8.15;\r\n\r\nimport \"./ImageFactory.sol\";\r\nimport \"./ERC721.sol\";\r\nimport \"./SafeMath.sol\";\r\n\r\n/// @notice Contract contains ERC721 function overrides,\r\n/// @notice additional functions and motifiers for buying, selling, licencing\r\ncontract ImageOwnership is ImageFactory, ERC721X {\r\n    using SafeMath for uint256;\r\n\r\n    mapping(uint256 => address) imageApprovals;\r\n    event ImageSold(\r\n        uint256 tokenId,\r\n        string title,\r\n        address seller,\r\n        address buyer,\r\n        uint256 price\r\n    );\r\n\r\n    // ERC721 function overrides\r\n    function balanceOf(address _owner)\r\n        external\r\n        view\r\n        override\r\n        returns (uint256)\r\n    {\r\n        return ownerImageCount[_owner];\r\n    }\r\n\r\n    /// @notice returns the owner of an image\r\n    /// @param _tokenId Id of the image token\r\n    /// @return address of owner\r\n    function ownerOf(uint256 _tokenId)\r\n        external\r\n        view\r\n        override\r\n        returns (address)\r\n    {\r\n        return imageToOwner[_tokenId];\r\n    }\r\n\r\n    function _transfer(\r\n        address _from,\r\n        address _to,\r\n        uint256 _tokenId\r\n    ) private {\r\n        ownerImageCount[_to] = ownerImageCount[_to].add(1);\r\n        ownerImageCount[msg.sender] = ownerImageCount[msg.sender].sub(1);\r\n        imageToOwner[_tokenId] = _to;\r\n        emit Transfer(_from, _to, _tokenId);\r\n    }\r\n\r\n    function transferFrom(\r\n        address _from,\r\n        address _to,\r\n        uint256 _tokenId\r\n    ) external payable override {\r\n        require(\r\n            imageToOwner[_tokenId] == msg.sender &&\r\n                imageApprovals[_tokenId] == msg.sender,\r\n            \"Sender is not owner and image is not approved\"\r\n        );\r\n        require(\r\n            isImageListed(_tokenId) == false,\r\n            \"Listed image cannot be transferred\"\r\n        );\r\n        _transfer(_from, _to, _tokenId);\r\n    }\r\n\r\n    function approve(address _approved, uint256 _tokenId)\r\n        external\r\n        payable\r\n        override\r\n        onlyOwnerOf(_tokenId)\r\n    {\r\n        imageApprovals[_tokenId] = _approved;\r\n        emit Approval(msg.sender, _approved, _tokenId);\r\n    }\r\n\r\n    /// @notice Check if an image is approved by the owner\r\n    /// @param _tokenId Id of the image token\r\n    /// @return bool if image is approved or not\r\n    function isTokenApproved(uint256 _tokenId) public view returns (bool) {\r\n        return imageToOwner[_tokenId] == imageApprovals[_tokenId];\r\n    }\r\n\r\n    // Selling functions\r\n    /// @notice list image for sale on the marketplace\r\n    /// @param _tokenId Id of the image token\r\n    /// @param _price Price in wei of the image\r\n    function listImage(uint256 _tokenId, uint256 _price)\r\n        external\r\n        onlyOwnerOf(_tokenId)\r\n        imageIsApproved(_tokenId)\r\n    {\r\n        require(_price > 0, \"Price cannot be less than 0 wei\");\r\n        images[_tokenId].forSale = true;\r\n        images[_tokenId].price = _price;\r\n    }\r\n\r\n    /// @notice list image for licencing on the marketplace\r\n    /// @param _tokenId of the image token\r\n    /// @param _price of the image's licence\r\n    /// @param _licencetype  specifies the type of licence that will be listed: royalty-free, rights-reserved, rights-managed.\r\n    function listImageLicence(\r\n        uint256 _tokenId,\r\n        uint256 _price,\r\n        uint256 _licencetype //for licencetype - 0 = RF; 1 = RR; 2 = RM\r\n    )\r\n        external\r\n        onlyOwnerOf(_tokenId)\r\n        imageIsApproved(_tokenId)\r\n        imageIsUnlisted(_tokenId) //not allow listing when already listed\r\n    {\r\n        require(\r\n            _licencetype == 0 || _licencetype == 1 || _licencetype == 2,\r\n            \"Invalid licence type\"\r\n        );\r\n        images[_tokenId].forLicence = true;\r\n        images[_tokenId].priceLicence = _price;\r\n        if (_licencetype == 0) {\r\n            images[_tokenId].licenceType = LicenceType.RF;\r\n        }\r\n        if (_licencetype == 1) {\r\n            images[_tokenId].licenceType = LicenceType.RR;\r\n        }\r\n        if (_licencetype == 2) {\r\n            images[_tokenId].licenceType = LicenceType.RM;\r\n        }\r\n    }\r\n\r\n    /// @notice Update the price of a listed image\r\n    /// @param _tokenId Id of the image token\r\n    /// @param _price Price in wei of the image\r\n    function changeListingPrice(uint256 _tokenId, uint256 _price)\r\n        public\r\n        onlyOwnerOf(_tokenId)\r\n        imageIsListed(_tokenId)\r\n    {\r\n        require(_price > 0, \"New price must be greater than 0\");\r\n        images[_tokenId].price = _price;\r\n    }\r\n\r\n    /// @notice Unlist an image from the copyright marketplace\r\n    /// @param _tokenId Id of the image token\r\n    function unlistImage(uint256 _tokenId)\r\n        external\r\n        onlyOwnerOf(_tokenId)\r\n        imageIsListed(_tokenId)\r\n    {\r\n        images[_tokenId].forSale = false;\r\n    }\r\n\r\n    /// @notice unlist an image from the licencing marketplace\r\n    /// @param _tokenId of the image token\r\n    function unlistImageLicence(uint256 _tokenId)\r\n        external\r\n        onlyOwnerOf(_tokenId)\r\n        imageIsListedForLicence(_tokenId)\r\n    {\r\n        images[_tokenId].forLicence = false;\r\n    }\r\n\r\n    /// @notice Purchase copyright of an image\r\n    /// @param _tokenId Id of the image token\r\n    function buyImage(uint256 _tokenId) public payable imageIsListed(_tokenId) {\r\n        Image storage image = images[_tokenId];\r\n        require(msg.value >= image.price, \"Insufficient price to buy image\");\r\n        address payable buyer = payable(msg.sender);\r\n        address payable seller = payable(imageToOwner[_tokenId]);\r\n        seller.transfer(msg.value);\r\n        image.forSale = false;\r\n        _transfer(seller, buyer, _tokenId);\r\n        emit ImageSold(_tokenId, image.title, seller, buyer, msg.value);\r\n    }\r\n\r\n    /// @notice Purchase licence of an image, note: image can only be listed for 1 type of licence\r\n    /// @param _tokenId Id of the image token\r\n    function buyLicence(uint256 _tokenId)\r\n        public\r\n        payable\r\n        imageIsListedForLicence(_tokenId)\r\n    {\r\n        Image storage image = images[_tokenId];\r\n        require(\r\n            msg.value >= image.priceLicence,\r\n            \"Insufficient price to buy licence\"\r\n        );\r\n        address payable seller = payable(imageToOwner[_tokenId]);\r\n        seller.transfer(msg.value);\r\n        image.licencesTypes.push(image.licenceType);\r\n        image.licencesOwners.push(msg.sender);\r\n        image.numOfLicences++;\r\n    }\r\n\r\n    // helper functions\r\n    /// @notice return useful information for an image\r\n    /// @dev Some solidity variables cannot be stored in memory, return them separately from the image object\r\n    /// @param _tokenId Id of the image token\r\n    function getImageDetails(uint256 _tokenId)\r\n        external\r\n        view\r\n        returns (\r\n            string memory title,\r\n            string memory description,\r\n            bool forSale,\r\n            uint256 price,\r\n            string memory ipfs,\r\n            uint256 priceLicence,\r\n            uint256 numLicences,\r\n            LicenceType licenceType\r\n        )\r\n    {\r\n        Image memory retImg = images[_tokenId];\r\n        forSale = images[_tokenId].forSale;\r\n        return (\r\n            retImg.title,\r\n            retImg.description,\r\n            forSale,\r\n            retImg.price,\r\n            retImg.ipfs,\r\n            retImg.priceLicence,\r\n            retImg.numOfLicences,\r\n            retImg.licenceType\r\n        );\r\n    }\r\n\r\n    /// @notice Get the address of the owner of the image\r\n    /// @param _tokenId Id of the image token\r\n    /// @return solidity address datatype\r\n    function getImageOwner(uint256 _tokenId) public view returns (address) {\r\n        return imageToOwner[_tokenId];\r\n    }\r\n\r\n    /// @notice Getter function for checking if image is listed\r\n    /// @param _tokenId Id of the image token\r\n    function isImageListed(uint256 _tokenId) public view returns (bool) {\r\n        return images[_tokenId].forSale == true;\r\n    }\r\n\r\n    /// @notice Check image is listed for licence\r\n    /// @param _tokenId Id of the image token\r\n    /// @return bool indicating whether image is listed\r\n    function isImageListedForLicence(uint256 _tokenId)\r\n        public\r\n        view\r\n        returns (bool)\r\n    {\r\n        return images[_tokenId].forLicence;\r\n    }\r\n\r\n    /// @notice Given an imageId checks if the message sender is a licencee\r\n    /// @param _imageId Id of the image token\r\n    /// @return bool indicating whether image is listed\r\n    function isAddrLicencingImage(uint256 _imageId) public view returns (bool) {\r\n        Image storage image = images[_imageId];\r\n        uint256 numLicences = image.numOfLicences;\r\n        for (uint256 i = 0; i < numLicences; ++i) {\r\n            if (image.licencesOwners[i] == msg.sender) {\r\n                return true;\r\n            }\r\n        }\r\n        return false;\r\n    }\r\n\r\n    /// @notice Only the owner of the token can call the function\r\n    /// @param _imageId Id of the image token\r\n    modifier onlyOwnerOf(uint256 _imageId) {\r\n        require(msg.sender == imageToOwner[_imageId], \"Sender is not owner\");\r\n        _;\r\n    }\r\n\r\n    /// @notice Image must be approved for owner actions\r\n    /// @param _imageId Id of the image token\r\n    modifier imageIsApproved(uint256 _imageId) {\r\n        require(isTokenApproved(_imageId), \"Image is not approved\");\r\n        _;\r\n    }\r\n\r\n    /// @notice Image must be listed for selling\r\n    /// @param _imageId Id of the image token\r\n    modifier imageIsListed(uint256 _imageId) {\r\n        require(isImageListed(_imageId), \"Image is not for sale\");\r\n        _;\r\n    }\r\n    \r\n    /// @notice Image must be listed for licencing\r\n    /// @param _imageId Id of the same image\r\n    modifier imageIsListedForLicence(uint256 _imageId) {\r\n        require(\r\n            isImageListedForLicence(_imageId),\r\n            \"Image is not for licencing\"\r\n        );\r\n        _;\r\n    }\r\n\r\n    /// @notice Image must be unlisted\r\n    /// @param _tokenId Id of the same image\r\n    modifier imageIsUnlisted(uint256 _tokenId) {\r\n        require(\r\n            !isImageListedForLicence(_tokenId),\r\n            \"Image is already listed for licencing\"\r\n        );\r\n        _;\r\n    }\r\n}\r\n",
  "sourcePath": "/Users/adamma/Desktop/2022T2/COMP6452/Global-Image-Registry/truffle/contracts/ImageOwnership.sol",
  "compiler": {
    "name": "solc",
    "version": "0.8.0+commit.c7dfd78e.Emscripten.clang"
  },
  "schemaVersion": "3.4.8",
  "updatedAt": "2022-07-28T02:34:08.292Z",
  "networkType": "ethereum",
  "devdoc": {
    "kind": "dev",
    "methods": {
      "buyImage(uint256)": {
        "params": {
          "_tokenId": "Id of the image token"
        }
      },
      "buyLicence(uint256)": {
        "params": {
          "_tokenId": "Id of the image token"
        }
      },
      "changeListingPrice(uint256,uint256)": {
        "params": {
          "_price": "Price in wei of the image",
          "_tokenId": "Id of the image token"
        }
      },
      "getImageDetails(uint256)": {
        "details": "Some solidity variables cannot be stored in memory, return them separately from the image object",
        "params": {
          "_tokenId": "Id of the image token"
        }
      },
      "getImageOwner(uint256)": {
        "params": {
          "_tokenId": "Id of the image token"
        },
        "returns": {
          "_0": "solidity address datatype"
        }
      },
      "isAddrLicencingImage(uint256)": {
        "params": {
          "_imageId": "Id of the image token"
        },
        "returns": {
          "_0": "bool indicating whether image is listed"
        }
      },
      "isImageListed(uint256)": {
        "params": {
          "_tokenId": "Id of the image token"
        }
      },
      "isImageListedForLicence(uint256)": {
        "params": {
          "_tokenId": "Id of the image token"
        },
        "returns": {
          "_0": "bool indicating whether image is listed"
        }
      },
      "isOwner()": {
        "returns": {
          "_0": "true if `msg.sender` is the owner of the contract."
        }
      },
      "isTokenApproved(uint256)": {
        "params": {
          "_tokenId": "Id of the image token"
        },
        "returns": {
          "_0": "bool if image is approved or not"
        }
      },
      "listImage(uint256,uint256)": {
        "params": {
          "_price": "Price in wei of the image",
          "_tokenId": "Id of the image token"
        }
      },
      "listImageLicence(uint256,uint256,uint256)": {
        "params": {
          "_licencetype": " specifies the type of licence that will be listed: royalty-free, rights-reserved, rights-managed.",
          "_price": "of the image's licence",
          "_tokenId": "of the image token"
        }
      },
      "owner()": {
        "returns": {
          "_0": "the address of the owner."
        }
      },
      "ownerOf(uint256)": {
        "params": {
          "_tokenId": "Id of the image token"
        },
        "returns": {
          "_0": "address of owner"
        }
      },
      "renounceOwnership()": {
        "details": "Allows the current owner to relinquish control of the contract."
      },
      "transferOwnership(address)": {
        "details": "Allows the current owner to transfer control of the contract to a newOwner.",
        "params": {
          "newOwner": "The address to transfer ownership to."
        }
      },
      "unlistImage(uint256)": {
        "params": {
          "_tokenId": "Id of the image token"
        }
      },
      "unlistImageLicence(uint256)": {
        "params": {
          "_tokenId": "of the image token"
        }
      }
    },
    "version": 1
  },
  "userdoc": {
    "kind": "user",
    "methods": {
      "buyImage(uint256)": {
        "notice": "Purchase copyright of an image"
      },
      "buyLicence(uint256)": {
        "notice": "Purchase licence of an image, note: image can only be listed for 1 type of licence"
      },
      "changeListingPrice(uint256,uint256)": {
        "notice": "Update the price of a listed image"
      },
      "getImageDetails(uint256)": {
        "notice": "return useful information for an image"
      },
      "getImageOwner(uint256)": {
        "notice": "Get the address of the owner of the image"
      },
      "getNumImages()": {
        "notice": "Getter for the number of images stored in the contract"
      },
      "isAddrLicencingImage(uint256)": {
        "notice": "Given an imageId checks if the message sender is a licencee"
      },
      "isImageListed(uint256)": {
        "notice": "Getter function for checking if image is listed"
      },
      "isImageListedForLicence(uint256)": {
        "notice": "Check image is listed for licence"
      },
      "isTokenApproved(uint256)": {
        "notice": "Check if an image is approved by the owner"
      },
      "listImage(uint256,uint256)": {
        "notice": "list image for sale on the marketplace"
      },
      "listImageLicence(uint256,uint256,uint256)": {
        "notice": "list image for licencing on the marketplace"
      },
      "ownerOf(uint256)": {
        "notice": "returns the owner of an image"
      },
      "renounceOwnership()": {
        "notice": "Renouncing to ownership will leave the contract without an owner. It will not be possible to call the functions with the `onlyOwner` modifier anymore."
      },
      "unlistImage(uint256)": {
        "notice": "Unlist an image from the copyright marketplace"
      },
      "unlistImageLicence(uint256)": {
        "notice": "unlist an image from the licencing marketplace"
      }
    },
    "notice": "Contract contains ERC721 function overrides,additional functions and motifiers for buying, selling, licencing",
    "version": 1
  }
}